{
  "contractName": "CryptoInsure",
  "abi": [
    {
      "inputs": [],
      "stateMutability": "nonpayable",
      "type": "constructor"
    },
    {
      "inputs": [
        {
          "internalType": "uint256",
          "name": "amntToInsure",
          "type": "uint256"
        },
        {
          "internalType": "uint256",
          "name": "termInMonths",
          "type": "uint256"
        }
      ],
      "name": "registerPolicy",
      "outputs": [
        {
          "internalType": "bool",
          "name": "registered",
          "type": "bool"
        }
      ],
      "stateMutability": "payable",
      "type": "function"
    },
    {
      "inputs": [
        {
          "internalType": "address",
          "name": "clientAddress",
          "type": "address"
        }
      ],
      "name": "retrievePolicyDetails",
      "outputs": [
        {
          "internalType": "uint256",
          "name": "balance",
          "type": "uint256"
        },
        {
          "internalType": "uint256",
          "name": "totalRepayment",
          "type": "uint256"
        },
        {
          "internalType": "uint256",
          "name": "noOfInstallments",
          "type": "uint256"
        },
        {
          "internalType": "uint256",
          "name": "installmentAmount",
          "type": "uint256"
        },
        {
          "internalType": "uint256",
          "name": "waitingPeriod",
          "type": "uint256"
        },
        {
          "internalType": "bool",
          "name": "isInArrears",
          "type": "bool"
        },
        {
          "internalType": "uint256",
          "name": "startDate",
          "type": "uint256"
        },
        {
          "internalType": "uint256",
          "name": "endDate",
          "type": "uint256"
        },
        {
          "internalType": "bool",
          "name": "pendingFirstInstallment",
          "type": "bool"
        },
        {
          "internalType": "bool",
          "name": "isBalanceToppedUp",
          "type": "bool"
        }
      ],
      "stateMutability": "view",
      "type": "function"
    },
    {
      "inputs": [
        {
          "internalType": "address",
          "name": "clientAddress",
          "type": "address"
        }
      ],
      "name": "hasPolicyMatured",
      "outputs": [
        {
          "internalType": "bool",
          "name": "",
          "type": "bool"
        }
      ],
      "stateMutability": "view",
      "type": "function"
    },
    {
      "inputs": [],
      "name": "makeClaim",
      "outputs": [
        {
          "internalType": "bool",
          "name": "",
          "type": "bool"
        }
      ],
      "stateMutability": "nonpayable",
      "type": "function"
    },
    {
      "inputs": [],
      "name": "withdraw",
      "outputs": [
        {
          "internalType": "bool",
          "name": "",
          "type": "bool"
        }
      ],
      "stateMutability": "nonpayable",
      "type": "function"
    },
    {
      "inputs": [
        {
          "internalType": "address",
          "name": "newAddress",
          "type": "address"
        }
      ],
      "name": "changeAddress",
      "outputs": [
        {
          "internalType": "bool",
          "name": "changed",
          "type": "bool"
        }
      ],
      "stateMutability": "nonpayable",
      "type": "function"
    },
    {
      "inputs": [
        {
          "internalType": "address",
          "name": "clientAddress",
          "type": "address"
        }
      ],
      "name": "payInstallment",
      "outputs": [
        {
          "internalType": "bool",
          "name": "",
          "type": "bool"
        }
      ],
      "stateMutability": "payable",
      "type": "function"
    },
    {
      "inputs": [
        {
          "internalType": "address",
          "name": "clientAddress",
          "type": "address"
        }
      ],
      "name": "getNextInstallmentDate",
      "outputs": [
        {
          "internalType": "uint256",
          "name": "",
          "type": "uint256"
        }
      ],
      "stateMutability": "view",
      "type": "function"
    },
    {
      "inputs": [],
      "name": "cancelPolicy",
      "outputs": [
        {
          "internalType": "bool",
          "name": "cancelled",
          "type": "bool"
        }
      ],
      "stateMutability": "nonpayable",
      "type": "function"
    },
    {
      "inputs": [
        {
          "internalType": "address",
          "name": "clientAddress",
          "type": "address"
        }
      ],
      "name": "ownerCancelPolicy",
      "outputs": [
        {
          "internalType": "bool",
          "name": "cancelled",
          "type": "bool"
        }
      ],
      "stateMutability": "nonpayable",
      "type": "function"
    }
  ],
  "bytecode": "0x608060405234801561001057600080fd5b50336000806101000a81548173ffffffffffffffffffffffffffffffffffffffff021916908373ffffffffffffffffffffffffffffffffffffffff160217905550608c600260006006815260200190815260200160002060000181905550600160026000600681526020019081526020016000206001018190555060028060006006815260200190815260200160002060020181905550607860026000600c8152602001908152602001600020600001819055506002806000600c815260200190815260200160002060010181905550600360026000600c815260200190815260200160002060020181905550611aef8061010c6000396000f3fe6080604052600436106100915760003560e01c8063a9418a9f11610059578063a9418a9f1461024f578063ad26404c146102b6578063eb83c08914610310578063f5aa020014610375578063fe64d6ff146103a257610091565b80630f522216146100965780633ccfd60b146101405780634839c1691461016d5780634ef2cc00146101bb5780637f6e6202146101e8575b600080fd5b3480156100a257600080fd5b506100e5600480360360208110156100b957600080fd5b81019080803573ffffffffffffffffffffffffffffffffffffffff169060200190929190505050610409565b604051808b81526020018a81526020018981526020018881526020018781526020018615158152602001858152602001848152602001831515815260200182151581526020019a505050505050505050505060405180910390f35b34801561014c57600080fd5b50610155610629565b60405180821515815260200191505060405180910390f35b6101a36004803603604081101561018357600080fd5b810190808035906020019092919080359060200190929190505050610815565b60405180821515815260200191505060405180910390f35b3480156101c757600080fd5b506101d0610b0c565b60405180821515815260200191505060405180910390f35b3480156101f457600080fd5b506102376004803603602081101561020b57600080fd5b81019080803573ffffffffffffffffffffffffffffffffffffffff169060200190929190505050610bb6565b60405180821515815260200191505060405180910390f35b34801561025b57600080fd5b5061029e6004803603602081101561027257600080fd5b81019080803573ffffffffffffffffffffffffffffffffffffffff169060200190929190505050610cbb565b60405180821515815260200191505060405180910390f35b6102f8600480360360208110156102cc57600080fd5b81019080803573ffffffffffffffffffffffffffffffffffffffff169060200190929190505050610e61565b60405180821515815260200191505060405180910390f35b34801561031c57600080fd5b5061035f6004803603602081101561033357600080fd5b81019080803573ffffffffffffffffffffffffffffffffffffffff169060200190929190505050610ff4565b6040518082815260200191505060405180910390f35b34801561038157600080fd5b5061038a6111a3565b60405180821515815260200191505060405180910390f35b3480156103ae57600080fd5b506103f1600480360360208110156103c557600080fd5b81019080803573ffffffffffffffffffffffffffffffffffffffff1690602001909291905050506115b0565b60405180821515815260200191505060405180910390f35b600080600080600080600080600080600160008c73ffffffffffffffffffffffffffffffffffffffff1673ffffffffffffffffffffffffffffffffffffffff16815260200190815260200160002060000160009054906101000a900460ff1661047157600080fd5b610479611a22565b600160008d73ffffffffffffffffffffffffffffffffffffffff1673ffffffffffffffffffffffffffffffffffffffff168152602001908152602001600020604051806101a00160405290816000820160009054906101000a900460ff161515151581526020016000820160019054906101000a900460ff16151515158152602001600182015481526020016002820154815260200160038201548152602001600482015481526020016005820154815260200160068201548152602001600782015481526020016008820160009054906101000a900460ff161515151581526020016008820160019054906101000a900460ff1615151515815260200160098201548152602001600a8201604051806060016040529081600082015481526020016001820154815260200160028201548152505081525050905060006105bf8261198a565b42101590508160400151826101000151836101800151602001516105e2856119e8565b856101800151604001518587606001516105fb89611a09565b89602001518a61012001519b509b509b509b509b509b509b509b509b509b5050509193959799509193959799565b6000600160003373ffffffffffffffffffffffffffffffffffffffff1673ffffffffffffffffffffffffffffffffffffffff16815260200190815260200160002060000160009054906101000a900460ff1680156106d45750600160003373ffffffffffffffffffffffffffffffffffffffff1673ffffffffffffffffffffffffffffffffffffffff16815260200190815260200160002060080160019054906101000a900460ff16155b80156107225750600160003373ffffffffffffffffffffffffffffffffffffffff1673ffffffffffffffffffffffffffffffffffffffff168152602001908152602001600020600101544710155b61072b57600080fd5b60018060003373ffffffffffffffffffffffffffffffffffffffff1673ffffffffffffffffffffffffffffffffffffffff16815260200190815260200160002060080160016101000a81548160ff0219169083151502179055503373ffffffffffffffffffffffffffffffffffffffff166108fc600160003373ffffffffffffffffffffffffffffffffffffffff1673ffffffffffffffffffffffffffffffffffffffff168152602001908152602001600020600101549081150290604051600060405180830381858888f1935050505015801561080d573d6000803e3d6000fd5b506001905090565b600060013410806108725750600160003373ffffffffffffffffffffffffffffffffffffffff1673ffffffffffffffffffffffffffffffffffffffff16815260200190815260200160002060000160009054906101000a900460ff165b1561087c57600080fd5b610884611a22565b60018160000190151590811515815250504281606001818152505060026000848152602001908152602001600020604051806060016040529081600082015481526020016001820154815260200160028201548152505081610180018190525060018160200190151590811515815250506002600084815260200190815260200160002060000154340281610100018181525050600360009054906101000a900473ffffffffffffffffffffffffffffffffffffffff1673ffffffffffffffffffffffffffffffffffffffff1663504e47306040518163ffffffff1660e01b815260040160206040518083038186803b15801561098057600080fd5b505afa158015610994573d6000803e3d6000fd5b505050506040513d60208110156109aa57600080fd5b81019080805190602001909291905050508160a001818152505080600160003373ffffffffffffffffffffffffffffffffffffffff1673ffffffffffffffffffffffffffffffffffffffff16815260200190815260200160002060008201518160000160006101000a81548160ff02191690831515021790555060208201518160000160016101000a81548160ff02191690831515021790555060408201518160010155606082015181600201556080820151816003015560a0820151816004015560c0820151816005015560e0820151816006015561010082015181600701556101208201518160080160006101000a81548160ff0219169083151502179055506101408201518160080160016101000a81548160ff021916908315150217905550610160820151816009015561018082015181600a0160008201518160000155602082015181600101556040820151816002015550509050505092915050565b6000600160003373ffffffffffffffffffffffffffffffffffffffff1673ffffffffffffffffffffffffffffffffffffffff16815260200190815260200160002060000160009054906101000a900460ff16610b6757600080fd5b6000600160003373ffffffffffffffffffffffffffffffffffffffff1673ffffffffffffffffffffffffffffffffffffffff168152602001908152602001600020600301819055506001905090565b60008060009054906101000a900473ffffffffffffffffffffffffffffffffffffffff1673ffffffffffffffffffffffffffffffffffffffff163373ffffffffffffffffffffffffffffffffffffffff1614610c1157600080fd5b600160008373ffffffffffffffffffffffffffffffffffffffff1673ffffffffffffffffffffffffffffffffffffffff16815260200190815260200160002060000160009054906101000a900460ff16610c6a57600080fd5b6000600160003373ffffffffffffffffffffffffffffffffffffffff1673ffffffffffffffffffffffffffffffffffffffff1681526020019081526020016000206003018190555060019050919050565b6000600160008373ffffffffffffffffffffffffffffffffffffffff1673ffffffffffffffffffffffffffffffffffffffff16815260200190815260200160002060000160009054906101000a900460ff16610d1657600080fd5b610e57600160008473ffffffffffffffffffffffffffffffffffffffff1673ffffffffffffffffffffffffffffffffffffffff168152602001908152602001600020604051806101a00160405290816000820160009054906101000a900460ff161515151581526020016000820160019054906101000a900460ff16151515158152602001600182015481526020016002820154815260200160038201548152602001600482015481526020016005820154815260200160068201548152602001600782015481526020016008820160009054906101000a900460ff161515151581526020016008820160019054906101000a900460ff1615151515815260200160098201548152602001600a8201604051806060016040529081600082015481526020016001820154815260200160028201548152505081525050611a09565b4210159050919050565b6000610e6b611a22565b600160008473ffffffffffffffffffffffffffffffffffffffff1673ffffffffffffffffffffffffffffffffffffffff168152602001908152602001600020604051806101a00160405290816000820160009054906101000a900460ff161515151581526020016000820160019054906101000a900460ff16151515158152602001600182015481526020016002820154815260200160038201548152602001600482015481526020016005820154815260200160068201548152602001600782015481526020016008820160009054906101000a900460ff161515151581526020016008820160019054906101000a900460ff1615151515815260200160098201548152602001600a8201604051806060016040529081600082015481526020016001820154815260200160028201548152505081525050905080600001511580610fbe5750610fbb816119e8565b34105b15610fc857600080fd5b60018160e001818151019150818152505060008160200190151590811515815250506001915050919050565b6000600160008373ffffffffffffffffffffffffffffffffffffffff1673ffffffffffffffffffffffffffffffffffffffff16815260200190815260200160002060000160009054906101000a900460ff1661104f57600080fd5b611057611a22565b600160008473ffffffffffffffffffffffffffffffffffffffff1673ffffffffffffffffffffffffffffffffffffffff168152602001908152602001600020604051806101a00160405290816000820160009054906101000a900460ff161515151581526020016000820160019054906101000a900460ff16151515158152602001600182015481526020016002820154815260200160038201548152602001600482015481526020016005820154815260200160068201548152602001600782015481526020016008820160009054906101000a900460ff161515151581526020016008820160019054906101000a900460ff1615151515815260200160098201548152602001600a8201604051806060016040529081600082015481526020016001820154815260200160028201548152505081525050905061119b8161198a565b915050919050565b6000336111ae611a22565b600160008373ffffffffffffffffffffffffffffffffffffffff1673ffffffffffffffffffffffffffffffffffffffff168152602001908152602001600020604051806101a00160405290816000820160009054906101000a900460ff161515151581526020016000820160019054906101000a900460ff16151515158152602001600182015481526020016002820154815260200160038201548152602001600482015481526020016005820154815260200160068201548152602001600782015481526020016008820160009054906101000a900460ff161515151581526020016008820160019054906101000a900460ff1615151515815260200160098201548152602001600a820160405180606001604052908160008201548152602001600182015481526020016002820154815250508152505090508060000151801561130157506112fe8161198a565b42105b8015611314575061131181611a09565b42105b61131d57600080fd5b600160003373ffffffffffffffffffffffffffffffffffffffff1673ffffffffffffffffffffffffffffffffffffffff16815260200190815260200160002060080160009054906101000a900460ff161561137757600080fd5b61137f611a22565b600160003373ffffffffffffffffffffffffffffffffffffffff1673ffffffffffffffffffffffffffffffffffffffff168152602001908152602001600020604051806101a00160405290816000820160009054906101000a900460ff161515151581526020016000820160019054906101000a900460ff16151515158152602001600182015481526020016002820154815260200160038201548152602001600482015481526020016005820154815260200160068201548152602001600782015481526020016008820160009054906101000a900460ff161515151581526020016008820160019054906101000a900460ff1615151515815260200160098201548152602001600a82016040518060600160405290816000820154815260200160018201548152602001600282015481525050815250509050600360009054906101000a900473ffffffffffffffffffffffffffffffffffffffff1673ffffffffffffffffffffffffffffffffffffffff1663504e47306040518163ffffffff1660e01b815260040160206040518083038186803b15801561152257600080fd5b505afa158015611536573d6000803e3d6000fd5b505050506040513d602081101561154c57600080fd5b81019080805190602001909291905050508160c001818152505060008160a001518260c001518161157957fe5b05600103905080600413611592576000945050506115ab565b6001826101200190151590811515815250506001945050505b505090565b6000600160003373ffffffffffffffffffffffffffffffffffffffff1673ffffffffffffffffffffffffffffffffffffffff16815260200190815260200160002060000160009054906101000a900460ff1661160b57600080fd5b611613611a22565b600160003373ffffffffffffffffffffffffffffffffffffffff1673ffffffffffffffffffffffffffffffffffffffff168152602001908152602001600020604051806101a00160405290816000820160009054906101000a900460ff161515151581526020016000820160019054906101000a900460ff16151515158152602001600182015481526020016002820154815260200160038201548152602001600482015481526020016005820154815260200160068201548152602001600782015481526020016008820160009054906101000a900460ff161515151581526020016008820160019054906101000a900460ff1615151515815260200160098201548152602001600a82016040518060600160405290816000820154815260200160018201548152602001600282015481525050815250509050600160003373ffffffffffffffffffffffffffffffffffffffff1673ffffffffffffffffffffffffffffffffffffffff168152602001908152602001600020600080820160006101000a81549060ff02191690556000820160016101000a81549060ff021916905560018201600090556002820160009055600382016000905560048201600090556005820160009055600682016000905560078201600090556008820160006101000a81549060ff02191690556008820160016101000a81549060ff02191690556009820160009055600a8201600080820160009055600182016000905560028201600090555050505080600160008573ffffffffffffffffffffffffffffffffffffffff1673ffffffffffffffffffffffffffffffffffffffff16815260200190815260200160002060008201518160000160006101000a81548160ff02191690831515021790555060208201518160000160016101000a81548160ff02191690831515021790555060408201518160010155606082015181600201556080820151816003015560a0820151816004015560c0820151816005015560e0820151816006015561010082015181600701556101208201518160080160006101000a81548160ff0219169083151502179055506101408201518160080160016101000a81548160ff021916908315150217905550610160820151816009015561018082015181600a0160008201518160000155602082015181600101556040820151816002015550509050506001915050919050565b600081602001511561199e574290506119e3565b60008260e001518361018001516020015103905060008114156119c55760009150506119e3565b62278d0060028460800151816119d757fe5b04028360600151019150505b919050565b60008161018001516020015182610100015181611a0157fe5b049050919050565b600062278d008260800151028260600151019050919050565b604051806101a001604052806000151581526020016000151581526020016000815260200160008152602001600081526020016000815260200160008152602001600081526020016000815260200160001515815260200160001515815260200160008152602001611a92611a98565b81525090565b6040518060600160405280600081526020016000815260200160008152509056fea26469706673582212207e11670c3773442c25b7dd83a22c5e0ef865c4d047468093053d40602d2abc5e64736f6c63430007000033",
  "immutableReferences": {},
  "source": "// SPDX-License-Identifier: MIT\r\npragma solidity >= 0.4.0;\r\n\r\nimport \"./PriceFeed.sol\";\r\n\r\ncontract CryptoInsure {\r\n\r\n    struct PricingPlan {\r\n        uint percentageMarkup;\r\n        uint noOfPayments; // no of installments over the term\r\n        uint waitingPeriodInMonths;\r\n    }\r\n\r\n    struct Policy {\r\n        bool exists; // used internally to check for existence in mapping\r\n        bool pendingFirstInstallment;\r\n        uint balance; // the insured amount\r\n        uint startDate; // policy start date\r\n        uint termInMonths; // the length of the insured period\r\n        int bnbPriceAtStart; // peg the price of BNB against USD at start\r\n        int bnbPriceAtClaim;\r\n        uint noOfInstallmentsPaid; // no of paid installments\r\n        uint totalRepayment; // the total repayment amount over the insured period\r\n        bool isBalanceToppedUp; // true if a claim made was approved else false\r\n        bool isWithdrawn;\r\n        uint noOfClaims; // claim > 1 means invalid/declined claims\r\n        PricingPlan pricingPlan;\r\n    }\r\n\r\n    address private owner;\r\n    mapping (address => Policy) private policies;\r\n    mapping (uint => PricingPlan) pricingPlans;\r\n    PriceFeed private priceFeed;\r\n\r\n    modifier isOwner() {\r\n        require(msg.sender == owner);\r\n        _; // continue executing rest of method body\r\n    }\r\n\r\n    modifier isPolicyActive(address clientAddress) {\r\n        Policy memory policy = policies[clientAddress];\r\n        require(policy.exists && block.timestamp < calculateInstallmentDate(policy) && block.timestamp < retrievePolicyEndDate(policy));\r\n        _;\r\n    }\r\n\r\n    constructor() { \r\n        owner = msg.sender;\r\n        pricingPlans[6].percentageMarkup = 140;\r\n        pricingPlans[6].noOfPayments = 1;\r\n        pricingPlans[6].waitingPeriodInMonths = 2;\r\n        pricingPlans[12].percentageMarkup = 120;\r\n        pricingPlans[12].noOfPayments = 2;\r\n        pricingPlans[12].waitingPeriodInMonths = 3;\r\n    }\r\n\r\n    function retrievePolicyEndDate(Policy memory policy) private pure returns(uint endDate) {\r\n        return policy.startDate + (policy.termInMonths * 30 days);\r\n    }\r\n\r\n    function retrieveInstallmentAmount(Policy memory policy) private pure returns(uint installmentAmount) {\r\n        return policy.totalRepayment / policy.pricingPlan.noOfPayments;\r\n    }   \r\n\r\n    function calculateInstallmentDate(Policy memory policy) private view returns(uint nextInstallmentDate) {\r\n        if (policy.pendingFirstInstallment) {\r\n            return block.timestamp;\r\n        } \r\n        uint remainingPayments = policy.pricingPlan.noOfPayments - policy.noOfInstallmentsPaid;\r\n        if (remainingPayments == 0) {\r\n            return 0;\r\n        }\r\n        return policy.startDate + ((policy.termInMonths / 2) * 30 days);\r\n    } \r\n\r\n    function registerPolicy(uint amntToInsure, uint termInMonths) public payable returns(bool registered) { \r\n        if (msg.value < 1 || policies[msg.sender].exists) { // 1 BNB is the minimum insured amount\r\n            revert();\r\n        } \r\n        Policy memory policy;\r\n        policy.exists = true;\r\n        policy.startDate = block.timestamp;\r\n        policy.pricingPlan = pricingPlans[termInMonths];\r\n        policy.pendingFirstInstallment = true;\r\n        policy.totalRepayment = msg.value * pricingPlans[termInMonths].percentageMarkup;\r\n        policy.bnbPriceAtStart = priceFeed.getLatestBNBPrice();\r\n        policies[msg.sender] = policy;\r\n    }\r\n\r\n    function retrievePolicyDetails(address clientAddress) public view returns(uint balance, uint totalRepayment, uint noOfInstallments, \r\n                                                                              uint installmentAmount, uint waitingPeriod, bool isInArrears, \r\n                                                                              uint startDate, uint endDate, bool pendingFirstInstallment,\r\n                                                                              bool isBalanceToppedUp) {\r\n        require(policies[clientAddress].exists);\r\n        Policy memory policy = policies[clientAddress];\r\n        bool isInArrears = block.timestamp >= calculateInstallmentDate(policy);\r\n        return (policy.balance, policy.totalRepayment, policy.pricingPlan.noOfPayments, \r\n                retrieveInstallmentAmount(policy), policy.pricingPlan.waitingPeriodInMonths, \r\n                isInArrears, policy.startDate, retrievePolicyEndDate(policy), \r\n                policy.pendingFirstInstallment, policy.isBalanceToppedUp);\r\n    }\r\n\r\n    function hasPolicyMatured(address clientAddress) public view returns(bool) {\r\n        require(policies[clientAddress].exists);\r\n        return block.timestamp >= retrievePolicyEndDate(policies[clientAddress]);\r\n    }\r\n\r\n    function makeClaim() public isPolicyActive(msg.sender) returns(bool) {\r\n        require(!policies[msg.sender].isBalanceToppedUp);\r\n        Policy memory policy = policies[msg.sender];\r\n        policy.bnbPriceAtClaim = priceFeed.getLatestBNBPrice();\r\n        int claimThreshold =  1 - policy.bnbPriceAtClaim /  policy.bnbPriceAtStart;\r\n        if (4 <= claimThreshold) {  // fix calculation to handle decimals\r\n            return false;\r\n        }\r\n        policy.isBalanceToppedUp = true;\r\n        //top up balance\r\n        return true;\r\n    }\r\n\r\n    function withdraw() public returns(bool) {\r\n        require(policies[msg.sender].exists && !policies[msg.sender].isWithdrawn && address(this).balance >= policies[msg.sender].balance);\r\n        policies[msg.sender].isWithdrawn = true;\r\n        msg.sender.transfer(policies[msg.sender].balance);\r\n        return true;\r\n    }\r\n\r\n    function changeAddress(address newAddress) public returns(bool changed) {\r\n        require(policies[msg.sender].exists);\r\n        Policy memory policy = policies[msg.sender]; // need to still test\r\n        delete(policies[msg.sender]);\r\n        policies[newAddress] = policy;\r\n        return true;\r\n    } \r\n\r\n    function payInstallment(address clientAddress) public payable returns(bool) {\r\n        Policy memory policy = policies[clientAddress];\r\n        if (!policy.exists || msg.value < retrieveInstallmentAmount(policy)) {\r\n            revert();\r\n        }\r\n        policy.noOfInstallmentsPaid += 1;\r\n        policy.pendingFirstInstallment = false;\r\n        return true;\r\n    } \r\n\r\n    // assuming a maximum of 2 installments over 12 month period for now\r\n    function getNextInstallmentDate(address clientAddress) public view returns(uint) {\r\n        require(policies[clientAddress].exists);\r\n        Policy memory policy = policies[clientAddress];\r\n        return calculateInstallmentDate(policy);\r\n    } \r\n\r\n    function cancelPolicy() public returns(bool cancelled) {\r\n        require(policies[msg.sender].exists);\r\n        policies[msg.sender].termInMonths = 0;\r\n        return true;\r\n    }   \r\n\r\n    function ownerCancelPolicy(address clientAddress) public isOwner() returns(bool cancelled) {\r\n        require(policies[clientAddress].exists);\r\n        policies[msg.sender].termInMonths = 0; // find a way to reset policy\r\n        return true;\r\n    }   \r\n}",
  "sourcePath": "e:/git/BSC-Master-class-group-28-project/contracts/CryptoInsure.sol",
  "compiler": {
    "name": "solc",
    "version": "0.7.0+commit.9e61f92b.Emscripten.clang"
  },
  "schemaVersion": "3.3.4",
  "updatedAt": "2021-04-15T14:33:34.825Z",
  "devdoc": {
    "kind": "dev",
    "methods": {},
    "version": 1
  },
  "userdoc": {
    "kind": "user",
    "methods": {},
    "version": 1
  }
}