{
  "contractName": "CryptoInsure",
  "abi": [
    {
      "inputs": [],
      "stateMutability": "nonpayable",
      "type": "constructor"
    },
    {
      "inputs": [],
      "name": "getLatestBNBPrice",
      "outputs": [
        {
          "internalType": "int256",
          "name": "",
          "type": "int256"
        }
      ],
      "stateMutability": "view",
      "type": "function"
    },
    {
      "inputs": [
        {
          "internalType": "uint256",
          "name": "amntToInsure",
          "type": "uint256"
        },
        {
          "internalType": "uint256",
          "name": "termInMonths",
          "type": "uint256"
        }
      ],
      "name": "registerPolicy",
      "outputs": [
        {
          "internalType": "bool",
          "name": "registered",
          "type": "bool"
        }
      ],
      "stateMutability": "payable",
      "type": "function"
    },
    {
      "inputs": [
        {
          "internalType": "address",
          "name": "clientAddress",
          "type": "address"
        }
      ],
      "name": "retrievePolicyDetails",
      "outputs": [
        {
          "internalType": "uint256",
          "name": "balance",
          "type": "uint256"
        },
        {
          "internalType": "uint256",
          "name": "totalRepayment",
          "type": "uint256"
        },
        {
          "internalType": "uint256",
          "name": "noOfInstallments",
          "type": "uint256"
        },
        {
          "internalType": "uint256",
          "name": "installmentAmount",
          "type": "uint256"
        },
        {
          "internalType": "uint256",
          "name": "waitingPeriod",
          "type": "uint256"
        },
        {
          "internalType": "bool",
          "name": "isInArrears",
          "type": "bool"
        },
        {
          "internalType": "uint256",
          "name": "startDate",
          "type": "uint256"
        },
        {
          "internalType": "uint256",
          "name": "endDate",
          "type": "uint256"
        },
        {
          "internalType": "bool",
          "name": "pendingFirstInstallment",
          "type": "bool"
        },
        {
          "internalType": "bool",
          "name": "isBalanceToppedUp",
          "type": "bool"
        }
      ],
      "stateMutability": "view",
      "type": "function"
    },
    {
      "inputs": [
        {
          "internalType": "address",
          "name": "clientAddress",
          "type": "address"
        }
      ],
      "name": "hasPolicyMatured",
      "outputs": [
        {
          "internalType": "bool",
          "name": "",
          "type": "bool"
        }
      ],
      "stateMutability": "view",
      "type": "function"
    },
    {
      "inputs": [],
      "name": "makeClaim",
      "outputs": [
        {
          "internalType": "bool",
          "name": "",
          "type": "bool"
        }
      ],
      "stateMutability": "nonpayable",
      "type": "function"
    },
    {
      "inputs": [],
      "name": "withdraw",
      "outputs": [
        {
          "internalType": "bool",
          "name": "",
          "type": "bool"
        }
      ],
      "stateMutability": "nonpayable",
      "type": "function"
    },
    {
      "inputs": [
        {
          "internalType": "address",
          "name": "newAddress",
          "type": "address"
        }
      ],
      "name": "changeAddress",
      "outputs": [
        {
          "internalType": "bool",
          "name": "",
          "type": "bool"
        }
      ],
      "stateMutability": "nonpayable",
      "type": "function"
    },
    {
      "inputs": [
        {
          "internalType": "address",
          "name": "clientAddress",
          "type": "address"
        }
      ],
      "name": "payInstallment",
      "outputs": [
        {
          "internalType": "bool",
          "name": "",
          "type": "bool"
        }
      ],
      "stateMutability": "payable",
      "type": "function"
    },
    {
      "inputs": [
        {
          "internalType": "address",
          "name": "clientAddress",
          "type": "address"
        }
      ],
      "name": "getNextInstallmentDate",
      "outputs": [
        {
          "internalType": "uint256",
          "name": "",
          "type": "uint256"
        }
      ],
      "stateMutability": "view",
      "type": "function"
    },
    {
      "inputs": [],
      "name": "cancelPolicy",
      "outputs": [
        {
          "internalType": "bool",
          "name": "cancelled",
          "type": "bool"
        }
      ],
      "stateMutability": "nonpayable",
      "type": "function"
    },
    {
      "inputs": [
        {
          "internalType": "address",
          "name": "clientAddress",
          "type": "address"
        }
      ],
      "name": "ownerCancelPolicy",
      "outputs": [
        {
          "internalType": "bool",
          "name": "cancelled",
          "type": "bool"
        }
      ],
      "stateMutability": "nonpayable",
      "type": "function"
    }
  ],
  "bytecode": "0x608060405234801561001057600080fd5b50336000806101000a81548173ffffffffffffffffffffffffffffffffffffffff021916908373ffffffffffffffffffffffffffffffffffffffff160217905550608c600260006006815260200190815260200160002060000181905550600160026000600681526020019081526020016000206001018190555060028060006006815260200190815260200160002060020181905550607860026000600c8152602001908152602001600020600001819055506002806000600c815260200190815260200160002060010181905550600360026000600c815260200190815260200160002060020181905550732514895c72f50d8bd4b4f9b1110f0d6bd2c97526600360006101000a81548173ffffffffffffffffffffffffffffffffffffffff021916908373ffffffffffffffffffffffffffffffffffffffff160217905550611b23806101616000396000f3fe60806040526004361061009c5760003560e01c80637f6e6202116100645780637f6e62021461021e578063a9418a9f14610285578063ad26404c146102ec578063eb83c08914610346578063f5aa0200146103ab578063fe64d6ff146103d85761009c565b80630f522216146100a15780633ccfd60b1461014b5780634839c169146101785780634ef2cc00146101c6578063504e4730146101f3575b600080fd5b3480156100ad57600080fd5b506100f0600480360360208110156100c457600080fd5b81019080803573ffffffffffffffffffffffffffffffffffffffff16906020019092919050505061043f565b604051808b81526020018a81526020018981526020018881526020018781526020018615158152602001858152602001848152602001831515815260200182151581526020019a505050505050505050505060405180910390f35b34801561015757600080fd5b5061016061065f565b60405180821515815260200191505060405180910390f35b6101ae6004803603604081101561018e57600080fd5b810190808035906020019092919080359060200190929190505050610851565b60405180821515815260200191505060405180910390f35b3480156101d257600080fd5b506101db610ab7565b60405180821515815260200191505060405180910390f35b3480156101ff57600080fd5b50610208610b61565b6040518082815260200191505060405180910390f35b34801561022a57600080fd5b5061026d6004803603602081101561024157600080fd5b81019080803573ffffffffffffffffffffffffffffffffffffffff169060200190929190505050610c4a565b60405180821515815260200191505060405180910390f35b34801561029157600080fd5b506102d4600480360360208110156102a857600080fd5b81019080803573ffffffffffffffffffffffffffffffffffffffff169060200190929190505050610d4f565b60405180821515815260200191505060405180910390f35b61032e6004803603602081101561030257600080fd5b81019080803573ffffffffffffffffffffffffffffffffffffffff169060200190929190505050610ef5565b60405180821515815260200191505060405180910390f35b34801561035257600080fd5b506103956004803603602081101561036957600080fd5b81019080803573ffffffffffffffffffffffffffffffffffffffff169060200190929190505050611088565b6040518082815260200191505060405180910390f35b3480156103b757600080fd5b506103c0611237565b60405180821515815260200191505060405180910390f35b3480156103e457600080fd5b50610427600480360360208110156103fb57600080fd5b81019080803573ffffffffffffffffffffffffffffffffffffffff1690602001909291905050506115e4565b60405180821515815260200191505060405180910390f35b600080600080600080600080600080600160008c73ffffffffffffffffffffffffffffffffffffffff1673ffffffffffffffffffffffffffffffffffffffff16815260200190815260200160002060000160009054906101000a900460ff166104a757600080fd5b6104af611a56565b600160008d73ffffffffffffffffffffffffffffffffffffffff1673ffffffffffffffffffffffffffffffffffffffff168152602001908152602001600020604051806101a00160405290816000820160009054906101000a900460ff161515151581526020016000820160019054906101000a900460ff16151515158152602001600182015481526020016002820154815260200160038201548152602001600482015481526020016005820154815260200160068201548152602001600782015481526020016008820160009054906101000a900460ff161515151581526020016008820160019054906101000a900460ff1615151515815260200160098201548152602001600a8201604051806060016040529081600082015481526020016001820154815260200160028201548152505081525050905060006105f5826119be565b421015905081604001518261010001518361018001516020015161061885611a1c565b8561018001516040015185876060015161063189611a3d565b89602001518a61012001519b509b509b509b509b509b509b509b509b509b5050509193959799509193959799565b6000600160003373ffffffffffffffffffffffffffffffffffffffff1673ffffffffffffffffffffffffffffffffffffffff16815260200190815260200160002060000160009054906101000a900460ff16801561070a5750600160003373ffffffffffffffffffffffffffffffffffffffff1673ffffffffffffffffffffffffffffffffffffffff16815260200190815260200160002060080160019054906101000a900460ff16155b80156107585750600160003373ffffffffffffffffffffffffffffffffffffffff1673ffffffffffffffffffffffffffffffffffffffff168152602001908152602001600020600101544710155b61076157600080fd5b60018060003373ffffffffffffffffffffffffffffffffffffffff1673ffffffffffffffffffffffffffffffffffffffff16815260200190815260200160002060080160016101000a81548160ff02191690831515021790555060003390508073ffffffffffffffffffffffffffffffffffffffff166108fc600160003373ffffffffffffffffffffffffffffffffffffffff1673ffffffffffffffffffffffffffffffffffffffff168152602001908152602001600020600101549081150290604051600060405180830381858888f19350505050158015610848573d6000803e3d6000fd5b50600191505090565b600060013410806108ae5750600160003373ffffffffffffffffffffffffffffffffffffffff1673ffffffffffffffffffffffffffffffffffffffff16815260200190815260200160002060000160009054906101000a900460ff165b156108b857600080fd5b6108c0611a56565b60018160000190151590811515815250504281606001818152505060026000848152602001908152602001600020604051806060016040529081600082015481526020016001820154815260200160028201548152505081610180018190525060018160200190151590811515815250506064600260008581526020019081526020016000206000015434028161095357fe5b0481610100018181525050610966610b61565b8160a001818152505080600160003373ffffffffffffffffffffffffffffffffffffffff1673ffffffffffffffffffffffffffffffffffffffff16815260200190815260200160002060008201518160000160006101000a81548160ff02191690831515021790555060208201518160000160016101000a81548160ff02191690831515021790555060408201518160010155606082015181600201556080820151816003015560a0820151816004015560c0820151816005015560e0820151816006015561010082015181600701556101208201518160080160006101000a81548160ff0219169083151502179055506101408201518160080160016101000a81548160ff021916908315150217905550610160820151816009015561018082015181600a0160008201518160000155602082015181600101556040820151816002015550509050505092915050565b6000600160003373ffffffffffffffffffffffffffffffffffffffff1673ffffffffffffffffffffffffffffffffffffffff16815260200190815260200160002060000160009054906101000a900460ff16610b1257600080fd5b6000600160003373ffffffffffffffffffffffffffffffffffffffff1673ffffffffffffffffffffffffffffffffffffffff168152602001908152602001600020600301819055506001905090565b600080600080600080600360009054906101000a900473ffffffffffffffffffffffffffffffffffffffff1673ffffffffffffffffffffffffffffffffffffffff1663feaf968c6040518163ffffffff1660e01b815260040160a06040518083038186803b158015610bd257600080fd5b505afa158015610be6573d6000803e3d6000fd5b505050506040513d60a0811015610bfc57600080fd5b81019080805190602001909291908051906020019092919080519060200190929190805190602001909291908051906020019092919050505094509450945094509450839550505050505090565b60008060009054906101000a900473ffffffffffffffffffffffffffffffffffffffff1673ffffffffffffffffffffffffffffffffffffffff163373ffffffffffffffffffffffffffffffffffffffff1614610ca557600080fd5b600160008373ffffffffffffffffffffffffffffffffffffffff1673ffffffffffffffffffffffffffffffffffffffff16815260200190815260200160002060000160009054906101000a900460ff16610cfe57600080fd5b6000600160003373ffffffffffffffffffffffffffffffffffffffff1673ffffffffffffffffffffffffffffffffffffffff1681526020019081526020016000206003018190555060019050919050565b6000600160008373ffffffffffffffffffffffffffffffffffffffff1673ffffffffffffffffffffffffffffffffffffffff16815260200190815260200160002060000160009054906101000a900460ff16610daa57600080fd5b610eeb600160008473ffffffffffffffffffffffffffffffffffffffff1673ffffffffffffffffffffffffffffffffffffffff168152602001908152602001600020604051806101a00160405290816000820160009054906101000a900460ff161515151581526020016000820160019054906101000a900460ff16151515158152602001600182015481526020016002820154815260200160038201548152602001600482015481526020016005820154815260200160068201548152602001600782015481526020016008820160009054906101000a900460ff161515151581526020016008820160019054906101000a900460ff1615151515815260200160098201548152602001600a8201604051806060016040529081600082015481526020016001820154815260200160028201548152505081525050611a3d565b4210159050919050565b6000610eff611a56565b600160008473ffffffffffffffffffffffffffffffffffffffff1673ffffffffffffffffffffffffffffffffffffffff168152602001908152602001600020604051806101a00160405290816000820160009054906101000a900460ff161515151581526020016000820160019054906101000a900460ff16151515158152602001600182015481526020016002820154815260200160038201548152602001600482015481526020016005820154815260200160068201548152602001600782015481526020016008820160009054906101000a900460ff161515151581526020016008820160019054906101000a900460ff1615151515815260200160098201548152602001600a8201604051806060016040529081600082015481526020016001820154815260200160028201548152505081525050905080600001511580611052575061104f81611a1c565b34105b1561105c57600080fd5b60018160e001818151019150818152505060008160200190151590811515815250506001915050919050565b6000600160008373ffffffffffffffffffffffffffffffffffffffff1673ffffffffffffffffffffffffffffffffffffffff16815260200190815260200160002060000160009054906101000a900460ff166110e357600080fd5b6110eb611a56565b600160008473ffffffffffffffffffffffffffffffffffffffff1673ffffffffffffffffffffffffffffffffffffffff168152602001908152602001600020604051806101a00160405290816000820160009054906101000a900460ff161515151581526020016000820160019054906101000a900460ff16151515158152602001600182015481526020016002820154815260200160038201548152602001600482015481526020016005820154815260200160068201548152602001600782015481526020016008820160009054906101000a900460ff161515151581526020016008820160019054906101000a900460ff1615151515815260200160098201548152602001600a8201604051806060016040529081600082015481526020016001820154815260200160028201548152505081525050905061122f816119be565b915050919050565b600033611242611a56565b600160008373ffffffffffffffffffffffffffffffffffffffff1673ffffffffffffffffffffffffffffffffffffffff168152602001908152602001600020604051806101a00160405290816000820160009054906101000a900460ff161515151581526020016000820160019054906101000a900460ff16151515158152602001600182015481526020016002820154815260200160038201548152602001600482015481526020016005820154815260200160068201548152602001600782015481526020016008820160009054906101000a900460ff161515151581526020016008820160019054906101000a900460ff1615151515815260200160098201548152602001600a82016040518060600160405290816000820154815260200160018201548152602001600282015481525050815250509050806000015180156113955750611392816119be565b42105b80156113a857506113a581611a3d565b42105b6113b157600080fd5b600160003373ffffffffffffffffffffffffffffffffffffffff1673ffffffffffffffffffffffffffffffffffffffff16815260200190815260200160002060080160009054906101000a900460ff161561140b57600080fd5b611413611a56565b600160003373ffffffffffffffffffffffffffffffffffffffff1673ffffffffffffffffffffffffffffffffffffffff168152602001908152602001600020604051806101a00160405290816000820160009054906101000a900460ff161515151581526020016000820160019054906101000a900460ff16151515158152602001600182015481526020016002820154815260200160038201548152602001600482015481526020016005820154815260200160068201548152602001600782015481526020016008820160009054906101000a900460ff161515151581526020016008820160019054906101000a900460ff1615151515815260200160098201548152602001600a82016040518060600160405290816000820154815260200160018201548152602001600282015481525050815250509050611556610b61565b8160c001818152505060008160a001516127108360c00151028161157657fe5b05612710039050610fa1811215611592576000945050506115df565b6001826101200190151590811515815250508160c001516103e8828460a0015102846040015102816115c057fe5b04816115c857fe5b048260400181815101915081815250506001945050505b505090565b6000600160003373ffffffffffffffffffffffffffffffffffffffff1673ffffffffffffffffffffffffffffffffffffffff16815260200190815260200160002060000160009054906101000a900460ff1661163f57600080fd5b611647611a56565b600160003373ffffffffffffffffffffffffffffffffffffffff1673ffffffffffffffffffffffffffffffffffffffff168152602001908152602001600020604051806101a00160405290816000820160009054906101000a900460ff161515151581526020016000820160019054906101000a900460ff16151515158152602001600182015481526020016002820154815260200160038201548152602001600482015481526020016005820154815260200160068201548152602001600782015481526020016008820160009054906101000a900460ff161515151581526020016008820160019054906101000a900460ff1615151515815260200160098201548152602001600a82016040518060600160405290816000820154815260200160018201548152602001600282015481525050815250509050600160003373ffffffffffffffffffffffffffffffffffffffff1673ffffffffffffffffffffffffffffffffffffffff168152602001908152602001600020600080820160006101000a81549060ff02191690556000820160016101000a81549060ff021916905560018201600090556002820160009055600382016000905560048201600090556005820160009055600682016000905560078201600090556008820160006101000a81549060ff02191690556008820160016101000a81549060ff02191690556009820160009055600a8201600080820160009055600182016000905560028201600090555050505080600160008573ffffffffffffffffffffffffffffffffffffffff1673ffffffffffffffffffffffffffffffffffffffff16815260200190815260200160002060008201518160000160006101000a81548160ff02191690831515021790555060208201518160000160016101000a81548160ff02191690831515021790555060408201518160010155606082015181600201556080820151816003015560a0820151816004015560c0820151816005015560e0820151816006015561010082015181600701556101208201518160080160006101000a81548160ff0219169083151502179055506101408201518160080160016101000a81548160ff021916908315150217905550610160820151816009015561018082015181600a0160008201518160000155602082015181600101556040820151816002015550509050506001915050919050565b60008160200151156119d257429050611a17565b60008260e001518361018001516020015103905060008114156119f9576000915050611a17565b62278d006002846080015181611a0b57fe5b04028360600151019150505b919050565b60008161018001516020015182610100015181611a3557fe5b049050919050565b600062278d008260800151028260600151019050919050565b604051806101a001604052806000151581526020016000151581526020016000815260200160008152602001600081526020016000815260200160008152602001600081526020016000815260200160001515815260200160001515815260200160008152602001611ac6611acc565b81525090565b6040518060600160405280600081526020016000815260200160008152509056fea2646970667358221220040278da20f27ce5cacd4ebb6f715fe86ea61bc4ab0006342a06f633d6865b2f64736f6c63430007000033",
  "immutableReferences": {},
  "source": "// SPDX-License-Identifier: MIT\r\npragma solidity >= 0.4.0;\r\n\r\nimport \"./AggregatorV3Interface.sol\";\r\n\r\ncontract CryptoInsure {\r\n\r\n    struct PricingPlan {\r\n        uint percentageMarkup;\r\n        uint noOfPayments; // no of installments over the term\r\n        uint waitingPeriodInMonths;\r\n    }\r\n\r\n    struct Policy {\r\n        bool exists; // used internally to check for existence in mapping\r\n        bool pendingFirstInstallment;\r\n        uint balance; // the insured amount\r\n        uint startDate; // policy start date\r\n        uint termInMonths; // the length of the insured period\r\n        int bnbPriceAtStart; // peg the price of BNB against USD at start\r\n        int bnbPriceAtClaim;\r\n        uint noOfInstallmentsPaid; // no of paid installments\r\n        uint totalRepayment; // the total repayment amount over the insured period\r\n        bool isBalanceToppedUp; // true if a claim made was approved else false\r\n        bool isWithdrawn;\r\n        uint noOfClaims; // claim > 1 means invalid/declined claims\r\n        PricingPlan pricingPlan;\r\n    }\r\n\r\n    address private owner;\r\n    mapping (address => Policy) private policies;\r\n    mapping (uint => PricingPlan) pricingPlans;\r\n    AggregatorV3Interface internal BNBPriceFeed;\r\n\r\n    constructor() { \r\n        owner = msg.sender;\r\n        pricingPlans[6].percentageMarkup = 140;\r\n        pricingPlans[6].noOfPayments = 1;\r\n        pricingPlans[6].waitingPeriodInMonths = 2;\r\n        pricingPlans[12].percentageMarkup = 120;\r\n        pricingPlans[12].noOfPayments = 2;\r\n        pricingPlans[12].waitingPeriodInMonths = 3;\r\n         // BNB/USD\r\n        BNBPriceFeed = AggregatorV3Interface(0x2514895c72f50D8bd4B4F9b1110F0D6bD2c97526);\r\n    }\r\n\r\n    modifier isOwner() {\r\n        require(msg.sender == owner);\r\n        _; // continue executing rest of method body\r\n    }\r\n\r\n    modifier isPolicyActive(address clientAddress) {\r\n        Policy memory policy = policies[clientAddress];\r\n        require(policy.exists && block.timestamp < calculateInstallmentDate(policy) && block.timestamp < retrievePolicyEndDate(policy));\r\n        _;\r\n    }\r\n\r\n    /**\r\n     * Returns the latest BNB price\r\n     */\r\n    function getLatestBNBPrice() public view returns (int) {\r\n        (\r\n            uint80 roundID,\r\n            int price,\r\n            uint startedAt,\r\n            uint timeStamp,\r\n            uint80 answeredInRound\r\n        ) = BNBPriceFeed.latestRoundData();\r\n        return price;\r\n    }\r\n\r\n    function retrievePolicyEndDate(Policy memory policy) private pure returns(uint endDate) {\r\n        return policy.startDate + (policy.termInMonths * 30 days);\r\n    }\r\n\r\n    function retrieveInstallmentAmount(Policy memory policy) private pure returns(uint installmentAmount) {\r\n        return policy.totalRepayment / policy.pricingPlan.noOfPayments;\r\n    }   \r\n\r\n    function calculateInstallmentDate(Policy memory policy) private view returns(uint nextInstallmentDate) {\r\n        if (policy.pendingFirstInstallment) {\r\n            return block.timestamp;\r\n        } \r\n        uint remainingPayments = policy.pricingPlan.noOfPayments - policy.noOfInstallmentsPaid;\r\n        if (remainingPayments == 0) {\r\n            return 0;\r\n        }\r\n        return policy.startDate + ((policy.termInMonths / 2) * 30 days); // todo: work out days in month\r\n    } \r\n\r\n    function registerPolicy(uint amntToInsure, uint termInMonths) public payable returns(bool registered) { \r\n        if (msg.value < 1 || policies[msg.sender].exists) { // 1 BNB is the minimum insured amount\r\n            revert();\r\n        } \r\n        Policy memory policy;\r\n        policy.exists = true;\r\n        policy.startDate = block.timestamp;\r\n        policy.pricingPlan = pricingPlans[termInMonths];\r\n        policy.pendingFirstInstallment = true;\r\n        policy.totalRepayment = (msg.value * pricingPlans[termInMonths].percentageMarkup) / 100;\r\n        policy.bnbPriceAtStart = getLatestBNBPrice();\r\n        policies[msg.sender] = policy;\r\n    }\r\n\r\n    function retrievePolicyDetails(address clientAddress) public view returns(uint balance, uint totalRepayment, uint noOfInstallments, \r\n                                                                              uint installmentAmount, uint waitingPeriod, bool isInArrears, \r\n                                                                              uint startDate, uint endDate, bool pendingFirstInstallment,\r\n                                                                              bool isBalanceToppedUp) {\r\n        require(policies[clientAddress].exists);\r\n        Policy memory policy = policies[clientAddress];\r\n        bool isInArrears = block.timestamp >= calculateInstallmentDate(policy);\r\n        return (policy.balance, policy.totalRepayment, policy.pricingPlan.noOfPayments, \r\n                retrieveInstallmentAmount(policy), policy.pricingPlan.waitingPeriodInMonths, \r\n                isInArrears, policy.startDate, retrievePolicyEndDate(policy), \r\n                policy.pendingFirstInstallment, policy.isBalanceToppedUp);\r\n    }\r\n\r\n    function hasPolicyMatured(address clientAddress) public view returns(bool) {\r\n        require(policies[clientAddress].exists);\r\n        return block.timestamp >= retrievePolicyEndDate(policies[clientAddress]);\r\n    }\r\n\r\n    function makeClaim() public isPolicyActive(msg.sender) returns(bool) {\r\n        require(!policies[msg.sender].isBalanceToppedUp);\r\n        Policy memory policy = policies[msg.sender];\r\n        policy.bnbPriceAtClaim = getLatestBNBPrice();\r\n        int claimThreshold =  10000 - ((policy.bnbPriceAtClaim * 10000) / policy.bnbPriceAtStart);\r\n        if (claimThreshold < 4001) {\r\n            return false;\r\n        }\r\n        policy.isBalanceToppedUp = true;\r\n        //top up balance\r\n        policy.balance += ((policy.balance * uint(policy.bnbPriceAtStart * claimThreshold)) / 1000) / uint(policy.bnbPriceAtClaim);\r\n        return true;\r\n    }\r\n\r\n    function withdraw() public returns(bool) {\r\n        require(policies[msg.sender].exists && !policies[msg.sender].isWithdrawn && address(this).balance >= policies[msg.sender].balance);\r\n        policies[msg.sender].isWithdrawn = true;\r\n        address payable wallet = payable(msg.sender);\r\n        wallet.transfer(policies[msg.sender].balance);\r\n        return true;\r\n    }\r\n\r\n    function changeAddress(address newAddress) public returns(bool) {\r\n        require(policies[msg.sender].exists);\r\n        Policy memory policy = policies[msg.sender]; // need to still test\r\n        delete(policies[msg.sender]);\r\n        policies[newAddress] = policy;\r\n        return true;\r\n    } \r\n\r\n    function payInstallment(address clientAddress) public payable returns(bool) {\r\n        Policy memory policy = policies[clientAddress];\r\n        if (!policy.exists || msg.value < retrieveInstallmentAmount(policy)) {\r\n            revert();\r\n        }\r\n        policy.noOfInstallmentsPaid += 1;\r\n        policy.pendingFirstInstallment = false;\r\n        return true;\r\n    } \r\n\r\n    // assuming a maximum of 2 installments over 12 month period for now\r\n    function getNextInstallmentDate(address clientAddress) public view returns(uint) {\r\n        require(policies[clientAddress].exists);\r\n        Policy memory policy = policies[clientAddress];\r\n        return calculateInstallmentDate(policy);\r\n    } \r\n\r\n    function cancelPolicy() public returns(bool cancelled) {\r\n        require(policies[msg.sender].exists);\r\n        policies[msg.sender].termInMonths = 0;\r\n        return true;\r\n    }   \r\n\r\n    function ownerCancelPolicy(address clientAddress) public isOwner() returns(bool cancelled) {\r\n        require(policies[clientAddress].exists);\r\n        policies[msg.sender].termInMonths = 0; // find a way to reset policy\r\n        return true;\r\n    }   \r\n}",
  "sourcePath": "e:/git/BSC-Master-class-group-28-project/contracts/CryptoInsure.sol",
  "compiler": {
    "name": "solc",
    "version": "0.7.0+commit.9e61f92b.Emscripten.clang"
  },
  "schemaVersion": "3.3.4",
  "updatedAt": "2021-04-15T20:16:33.210Z",
  "devdoc": {
    "kind": "dev",
    "methods": {},
    "version": 1
  },
  "userdoc": {
    "kind": "user",
    "methods": {
      "getLatestBNBPrice()": {
        "notice": "Returns the latest BNB price"
      }
    },
    "version": 1
  }
}