{
  "contractName": "CryptoInsure",
  "abi": [
    {
      "inputs": [],
      "stateMutability": "nonpayable",
      "type": "constructor"
    },
    {
      "inputs": [
        {
          "internalType": "uint256",
          "name": "amntToInsure",
          "type": "uint256"
        },
        {
          "internalType": "uint256",
          "name": "termInMonths",
          "type": "uint256"
        }
      ],
      "name": "registerPolicy",
      "outputs": [
        {
          "internalType": "bool",
          "name": "registered",
          "type": "bool"
        }
      ],
      "stateMutability": "payable",
      "type": "function"
    },
    {
      "inputs": [
        {
          "internalType": "address",
          "name": "clientAddress",
          "type": "address"
        }
      ],
      "name": "retrievePolicyDetails",
      "outputs": [
        {
          "internalType": "uint256",
          "name": "balance",
          "type": "uint256"
        },
        {
          "internalType": "uint256",
          "name": "totalRepayment",
          "type": "uint256"
        },
        {
          "internalType": "uint256",
          "name": "noOfInstallments",
          "type": "uint256"
        },
        {
          "internalType": "uint256",
          "name": "installmentAmount",
          "type": "uint256"
        },
        {
          "internalType": "uint256",
          "name": "waitingPeriod",
          "type": "uint256"
        },
        {
          "internalType": "bool",
          "name": "isInArrears",
          "type": "bool"
        },
        {
          "internalType": "uint256",
          "name": "startDate",
          "type": "uint256"
        },
        {
          "internalType": "uint256",
          "name": "endDate",
          "type": "uint256"
        }
      ],
      "stateMutability": "view",
      "type": "function"
    },
    {
      "inputs": [
        {
          "internalType": "address",
          "name": "clientAddress",
          "type": "address"
        }
      ],
      "name": "hasPolicyMatured",
      "outputs": [
        {
          "internalType": "bool",
          "name": "matured",
          "type": "bool"
        }
      ],
      "stateMutability": "view",
      "type": "function"
    },
    {
      "inputs": [
        {
          "internalType": "address",
          "name": "clientAddress",
          "type": "address"
        }
      ],
      "name": "isClaimApproved",
      "outputs": [
        {
          "internalType": "bool",
          "name": "approved",
          "type": "bool"
        }
      ],
      "stateMutability": "view",
      "type": "function"
    },
    {
      "inputs": [
        {
          "internalType": "address",
          "name": "clientAddress",
          "type": "address"
        }
      ],
      "name": "makeClaim",
      "outputs": [
        {
          "internalType": "bool",
          "name": "approved",
          "type": "bool"
        }
      ],
      "stateMutability": "nonpayable",
      "type": "function"
    },
    {
      "inputs": [
        {
          "internalType": "address",
          "name": "clientAddress",
          "type": "address"
        }
      ],
      "name": "withdraw",
      "outputs": [
        {
          "internalType": "bool",
          "name": "approved",
          "type": "bool"
        }
      ],
      "stateMutability": "view",
      "type": "function"
    },
    {
      "inputs": [
        {
          "internalType": "address",
          "name": "clientAddress",
          "type": "address"
        },
        {
          "internalType": "address",
          "name": "newAddress",
          "type": "address"
        }
      ],
      "name": "changeAddress",
      "outputs": [
        {
          "internalType": "bool",
          "name": "changed",
          "type": "bool"
        }
      ],
      "stateMutability": "nonpayable",
      "type": "function"
    },
    {
      "inputs": [
        {
          "internalType": "address",
          "name": "clientAddress",
          "type": "address"
        }
      ],
      "name": "payInstallment",
      "outputs": [
        {
          "internalType": "bool",
          "name": "paid",
          "type": "bool"
        }
      ],
      "stateMutability": "payable",
      "type": "function"
    },
    {
      "inputs": [
        {
          "internalType": "address",
          "name": "clientAddress",
          "type": "address"
        }
      ],
      "name": "getNextInstallmentDetails",
      "outputs": [
        {
          "internalType": "uint256",
          "name": "nextInstallmentDate",
          "type": "uint256"
        }
      ],
      "stateMutability": "view",
      "type": "function"
    },
    {
      "inputs": [
        {
          "internalType": "address",
          "name": "clientAddress",
          "type": "address"
        }
      ],
      "name": "cancelPolicy",
      "outputs": [
        {
          "internalType": "bool",
          "name": "cancelled",
          "type": "bool"
        }
      ],
      "stateMutability": "nonpayable",
      "type": "function"
    }
  ],
  "bytecode": "0x608060405234801561001057600080fd5b50336000806101000a81548173ffffffffffffffffffffffffffffffffffffffff021916908373ffffffffffffffffffffffffffffffffffffffff160217905550608c600260006006815260200190815260200160002060000181905550600160026000600681526020019081526020016000206001018190555060028060006006815260200190815260200160002060020181905550607860026000600c8152602001908152602001600020600001819055506002806000600c815260200190815260200160002060010181905550600360026000600c815260200190815260200160002060020181905550611b1c8061010c6000396000f3fe6080604052600436106100915760003560e01c8063a9418a9f11610059578063a9418a9f146102b1578063ad26404c14610318578063ba3c69b614610372578063efe08a7d146103d9578063f360b1401461046057610091565b80630f5222161461009657806335f0f56a1461012e5780634839c1691461019557806351cff8d9146101e357806357ed79721461024a575b600080fd5b3480156100a257600080fd5b506100e5600480360360208110156100b957600080fd5b81019080803573ffffffffffffffffffffffffffffffffffffffff1690602001909291905050506104c5565b6040518089815260200188815260200187815260200186815260200185815260200184151581526020018381526020018281526020019850505050505050505060405180910390f35b34801561013a57600080fd5b5061017d6004803603602081101561015157600080fd5b81019080803573ffffffffffffffffffffffffffffffffffffffff169060200190929190505050610687565b60405180821515815260200191505060405180910390f35b6101cb600480360360408110156101ab57600080fd5b8101908080359060200190929190803590602001909291905050506106e0565b60405180821515815260200191505060405180910390f35b3480156101ef57600080fd5b506102326004803603602081101561020657600080fd5b81019080803573ffffffffffffffffffffffffffffffffffffffff1690602001909291905050506109f8565b60405180821515815260200191505060405180910390f35b34801561025657600080fd5b506102996004803603602081101561026d57600080fd5b81019080803573ffffffffffffffffffffffffffffffffffffffff1690602001909291905050506109ff565b60405180821515815260200191505060405180910390f35b3480156102bd57600080fd5b50610300600480360360208110156102d457600080fd5b81019080803573ffffffffffffffffffffffffffffffffffffffff169060200190929190505050610df5565b60405180821515815260200191505060405180910390f35b61035a6004803603602081101561032e57600080fd5b81019080803573ffffffffffffffffffffffffffffffffffffffff169060200190929190505050610f5d565b60405180821515815260200191505060405180910390f35b34801561037e57600080fd5b506103c16004803603602081101561039557600080fd5b81019080803573ffffffffffffffffffffffffffffffffffffffff169060200190929190505050611289565b60405180821515815260200191505060405180910390f35b3480156103e557600080fd5b50610448600480360360408110156103fc57600080fd5b81019080803573ffffffffffffffffffffffffffffffffffffffff169060200190929190803573ffffffffffffffffffffffffffffffffffffffff1690602001909291905050506112db565b60405180821515815260200191505060405180910390f35b34801561046c57600080fd5b506104af6004803603602081101561048357600080fd5b81019080803573ffffffffffffffffffffffffffffffffffffffff1690602001909291905050506116ad565b6040518082815260200191505060405180910390f35b6000806000806000806000806104d9611a46565b600160008b73ffffffffffffffffffffffffffffffffffffffff1673ffffffffffffffffffffffffffffffffffffffff168152602001908152602001600020604051806101c00160405290816000820160009054906101000a900460ff161515151581526020016000820160019054906101000a900460ff16151515158152602001600182015481526020016002820154815260200160038201548152602001600482015481526020016005820154815260200160068201548152602001600782015481526020016008820160009054906101000a900460ff161515151581526020016008820160019054906101000a900460ff161515151581526020016008820160029054906101000a900460ff1615151515815260200160098201548152602001600a820160405180606001604052908160008201548152602001600182015481526020016002820154815250508152505090508060400151816101000151826101a001516020015161064d84611a0c565b846101a0015160400151856101200151866060015161066b88611a2d565b9850985098509850985098509850985050919395975091939597565b6000600160008373ffffffffffffffffffffffffffffffffffffffff1673ffffffffffffffffffffffffffffffffffffffff16815260200190815260200160002060080160019054906101000a900460ff169050919050565b6000600134108061073d5750600160003373ffffffffffffffffffffffffffffffffffffffff1673ffffffffffffffffffffffffffffffffffffffff16815260200190815260200160002060000160009054906101000a900460ff165b1561074757600080fd5b61074f611a46565b600181600001901515908115158152505042816060018181525050600260008481526020019081526020016000206040518060600160405290816000820154815260200160018201548152602001600282015481525050816101a0018190525060018160200190151590811515815250506002600084815260200190815260200160002060000154340281610100018181525050600360009054906101000a900473ffffffffffffffffffffffffffffffffffffffff1673ffffffffffffffffffffffffffffffffffffffff1663504e47306040518163ffffffff1660e01b815260040160206040518083038186803b15801561084b57600080fd5b505afa15801561085f573d6000803e3d6000fd5b505050506040513d602081101561087557600080fd5b81019080805190602001909291905050508160a001818152505080600160003373ffffffffffffffffffffffffffffffffffffffff1673ffffffffffffffffffffffffffffffffffffffff16815260200190815260200160002060008201518160000160006101000a81548160ff02191690831515021790555060208201518160000160016101000a81548160ff02191690831515021790555060408201518160010155606082015181600201556080820151816003015560a0820151816004015560c0820151816005015560e0820151816006015561010082015181600701556101208201518160080160006101000a81548160ff0219169083151502179055506101408201518160080160016101000a81548160ff0219169083151502179055506101608201518160080160026101000a81548160ff02191690831515021790555061018082015181600901556101a082015181600a0160008201518160000155602082015181600101556040820151816002015550509050505092915050565b6000919050565b600081610a0a611a46565b600160008373ffffffffffffffffffffffffffffffffffffffff1673ffffffffffffffffffffffffffffffffffffffff168152602001908152602001600020604051806101c00160405290816000820160009054906101000a900460ff161515151581526020016000820160019054906101000a900460ff16151515158152602001600182015481526020016002820154815260200160038201548152602001600482015481526020016005820154815260200160068201548152602001600782015481526020016008820160009054906101000a900460ff161515151581526020016008820160019054906101000a900460ff161515151581526020016008820160029054906101000a900460ff1615151515815260200160098201548152602001600a8201604051806060016040529081600082015481526020016001820154815260200160028201548152505081525050905080600001518015610b745750806101200151155b8015610b835750806101400151155b8015610b965750610b9381611a2d565b42105b610b9f57600080fd5b610ba7611a46565b600160008673ffffffffffffffffffffffffffffffffffffffff1673ffffffffffffffffffffffffffffffffffffffff168152602001908152602001600020604051806101c00160405290816000820160009054906101000a900460ff161515151581526020016000820160019054906101000a900460ff16151515158152602001600182015481526020016002820154815260200160038201548152602001600482015481526020016005820154815260200160068201548152602001600782015481526020016008820160009054906101000a900460ff161515151581526020016008820160019054906101000a900460ff161515151581526020016008820160029054906101000a900460ff1615151515815260200160098201548152602001600a82016040518060600160405290816000820154815260200160018201548152602001600282015481525050815250509050600360009054906101000a900473ffffffffffffffffffffffffffffffffffffffff1673ffffffffffffffffffffffffffffffffffffffff1663504e47306040518163ffffffff1660e01b815260040160206040518083038186803b158015610d6557600080fd5b505afa158015610d79573d6000803e3d6000fd5b505050506040513d6020811015610d8f57600080fd5b81019080805190602001909291905050508160c001818152505060008160a001518260c0015181610dbc57fe5b05600103905080600413610dd557600094505050610dee565b6001826101400190151590811515815250506001945050505b5050919050565b6000610f53600160008473ffffffffffffffffffffffffffffffffffffffff1673ffffffffffffffffffffffffffffffffffffffff168152602001908152602001600020604051806101c00160405290816000820160009054906101000a900460ff161515151581526020016000820160019054906101000a900460ff16151515158152602001600182015481526020016002820154815260200160038201548152602001600482015481526020016005820154815260200160068201548152602001600782015481526020016008820160009054906101000a900460ff161515151581526020016008820160019054906101000a900460ff161515151581526020016008820160029054906101000a900460ff1615151515815260200160098201548152602001600a8201604051806060016040529081600082015481526020016001820154815260200160028201548152505081525050611a2d565b4211159050919050565b600081610f68611a46565b600160008373ffffffffffffffffffffffffffffffffffffffff1673ffffffffffffffffffffffffffffffffffffffff168152602001908152602001600020604051806101c00160405290816000820160009054906101000a900460ff161515151581526020016000820160019054906101000a900460ff16151515158152602001600182015481526020016002820154815260200160038201548152602001600482015481526020016005820154815260200160068201548152602001600782015481526020016008820160009054906101000a900460ff161515151581526020016008820160019054906101000a900460ff161515151581526020016008820160029054906101000a900460ff1615151515815260200160098201548152602001600a82016040518060600160405290816000820154815260200160018201548152602001600282015481525050815250509050806000015180156110d25750806101200151155b80156110e15750806101400151155b80156110f457506110f181611a2d565b42105b6110fd57600080fd5b611105611a46565b600160008673ffffffffffffffffffffffffffffffffffffffff1673ffffffffffffffffffffffffffffffffffffffff168152602001908152602001600020604051806101c00160405290816000820160009054906101000a900460ff161515151581526020016000820160019054906101000a900460ff16151515158152602001600182015481526020016002820154815260200160038201548152602001600482015481526020016005820154815260200160068201548152602001600782015481526020016008820160009054906101000a900460ff161515151581526020016008820160019054906101000a900460ff161515151581526020016008820160029054906101000a900460ff1615151515815260200160098201548152602001600a8201604051806060016040529081600082015481526020016001820154815260200160028201548152505081525050905060018160e0018181510191508181525050600081602001901515908115158152505060019350505050919050565b600080600160008473ffffffffffffffffffffffffffffffffffffffff1673ffffffffffffffffffffffffffffffffffffffff1681526020019081526020016000206003018190555060019050919050565b60006112e5611a46565b600160008573ffffffffffffffffffffffffffffffffffffffff1673ffffffffffffffffffffffffffffffffffffffff168152602001908152602001600020604051806101c00160405290816000820160009054906101000a900460ff161515151581526020016000820160019054906101000a900460ff16151515158152602001600182015481526020016002820154815260200160038201548152602001600482015481526020016005820154815260200160068201548152602001600782015481526020016008820160009054906101000a900460ff161515151581526020016008820160019054906101000a900460ff161515151581526020016008820160029054906101000a900460ff1615151515815260200160098201548152602001600a82016040518060600160405290816000820154815260200160018201548152602001600282015481525050815250509050600160008573ffffffffffffffffffffffffffffffffffffffff1673ffffffffffffffffffffffffffffffffffffffff168152602001908152602001600020600080820160006101000a81549060ff02191690556000820160016101000a81549060ff021916905560018201600090556002820160009055600382016000905560048201600090556005820160009055600682016000905560078201600090556008820160006101000a81549060ff02191690556008820160016101000a81549060ff02191690556008820160026101000a81549060ff02191690556009820160009055600a8201600080820160009055600182016000905560028201600090555050505080600160008573ffffffffffffffffffffffffffffffffffffffff1673ffffffffffffffffffffffffffffffffffffffff16815260200190815260200160002060008201518160000160006101000a81548160ff02191690831515021790555060208201518160000160016101000a81548160ff02191690831515021790555060408201518160010155606082015181600201556080820151816003015560a0820151816004015560c0820151816005015560e0820151816006015561010082015181600701556101208201518160080160006101000a81548160ff0219169083151502179055506101408201518160080160016101000a81548160ff0219169083151502179055506101608201518160080160026101000a81548160ff02191690831515021790555061018082015181600901556101a082015181600a016000820151816000015560208201518160010155604082015181600201555050905050600191505092915050565b6000816116b8611a46565b600160008373ffffffffffffffffffffffffffffffffffffffff1673ffffffffffffffffffffffffffffffffffffffff168152602001908152602001600020604051806101c00160405290816000820160009054906101000a900460ff161515151581526020016000820160019054906101000a900460ff16151515158152602001600182015481526020016002820154815260200160038201548152602001600482015481526020016005820154815260200160068201548152602001600782015481526020016008820160009054906101000a900460ff161515151581526020016008820160019054906101000a900460ff161515151581526020016008820160029054906101000a900460ff1615151515815260200160098201548152602001600a82016040518060600160405290816000820154815260200160018201548152602001600282015481525050815250509050806000015180156118225750806101200151155b80156118315750806101400151155b8015611844575061184181611a2d565b42105b61184d57600080fd5b611855611a46565b600160008673ffffffffffffffffffffffffffffffffffffffff1673ffffffffffffffffffffffffffffffffffffffff168152602001908152602001600020604051806101c00160405290816000820160009054906101000a900460ff161515151581526020016000820160019054906101000a900460ff16151515158152602001600182015481526020016002820154815260200160038201548152602001600482015481526020016005820154815260200160068201548152602001600782015481526020016008820160009054906101000a900460ff161515151581526020016008820160019054906101000a900460ff161515151581526020016008820160029054906101000a900460ff1615151515815260200160098201548152602001600a820160405180606001604052908160008201548152602001600182015481526020016002820154815250508152505090508060200151156119be5742935050611a05565b60008160e00151826101a001516020015103905060008114156119e657600094505050611a05565b62278d0060028360800151816119f857fe5b0402826060015101945050505b5050919050565b6000816101a001516020015182610100015181611a2557fe5b049050919050565b600062278d008260800151028260600151019050919050565b604051806101c001604052806000151581526020016000151581526020016000815260200160008152602001600081526020016000815260200160008152602001600081526020016000815260200160001515815260200160001515815260200160001515815260200160008152602001611abf611ac5565b81525090565b6040518060600160405280600081526020016000815260200160008152509056fea26469706673582212201f4b2c79ddf2a5067f3ebd542e61c85145e88c95c504a7f261e6e3ffbb108e3864736f6c63430007000033",
  "immutableReferences": {},
  "source": "// SPDX-License-Identifier: MIT\r\npragma solidity >= 0.4.0;\r\n\r\nimport \"./PriceFeed.sol\";\r\n\r\ncontract CryptoInsure {\r\n\r\n    struct PricingPlan {\r\n        uint percentageMarkup;\r\n        uint noOfPayments; // no of installments over the term\r\n        uint waitingPeriodInMonths;\r\n    }\r\n\r\n    struct Policy {\r\n        bool exists; // used internally to check for existence in mapping\r\n        bool pendingFirstInstallment;\r\n        uint balance; // the insured amount\r\n        uint startDate; // policy start date\r\n        uint termInMonths; // the length of the insured period\r\n        int bnbPriceAtStart; // peg the price of BNB against USD at start\r\n        int bnbPriceAtClaim;\r\n        uint noOfInstallmentsPaid; // no of paid installments\r\n        uint totalRepayment; // the total repayment amount over the insured period\r\n        bool isInArrears; // true if an installment was missed else false\r\n        bool isClaimApproved; // true if a claim made was approved else false\r\n        bool isWithdrawn;\r\n        uint noOfClaims; // claim > 1 means invalid/declined claims\r\n        PricingPlan pricingPlan;\r\n    }\r\n\r\n    address private owner;\r\n    mapping (address => Policy) private policies;\r\n    mapping (uint => PricingPlan) pricingPlans;\r\n    PriceFeed private priceFeed;\r\n\r\n    modifier isOwner() {\r\n        require(msg.sender == owner);\r\n        _; // continue executing rest of method body\r\n    }\r\n\r\n    modifier isPolicyActive(address clientAddress) {\r\n        Policy memory policy = policies[clientAddress];\r\n        require(policy.exists && !policy.isInArrears && !policy.isClaimApproved && block.timestamp < retrievePolicyEndDate(policy));\r\n        _;\r\n    }\r\n\r\n    constructor() { \r\n        owner = msg.sender;\r\n        pricingPlans[6].percentageMarkup = 140;\r\n        pricingPlans[6].noOfPayments = 1;\r\n        pricingPlans[6].waitingPeriodInMonths = 2;\r\n        pricingPlans[12].percentageMarkup = 120;\r\n        pricingPlans[12].noOfPayments = 2;\r\n        pricingPlans[12].waitingPeriodInMonths = 3;\r\n    }\r\n\r\n    function retrievePolicyEndDate(Policy memory policy) private pure returns(uint endDate) {\r\n        return policy.startDate + (policy.termInMonths * 30 days);\r\n    }\r\n\r\n    function retrieveInstallmentAmount(Policy memory policy) private pure returns(uint installmentAmount) {\r\n        return policy.totalRepayment / policy.pricingPlan.noOfPayments;\r\n    }\r\n\r\n    function registerPolicy(uint amntToInsure, uint termInMonths) public payable returns(bool registered) { \r\n        if (msg.value < 1 || policies[msg.sender].exists) { // 1 BNB is the minimum insured amount\r\n            revert();\r\n        } \r\n        Policy memory policy;\r\n        policy.exists = true;\r\n        policy.startDate = block.timestamp;\r\n        policy.pricingPlan = pricingPlans[termInMonths];\r\n        policy.pendingFirstInstallment = true;\r\n        policy.totalRepayment = msg.value * pricingPlans[termInMonths].percentageMarkup;\r\n        policy.bnbPriceAtStart = priceFeed.getLatestBNBPrice();\r\n        policies[msg.sender] = policy;\r\n    }\r\n\r\n    function retrievePolicyDetails(address clientAddress) public view returns(uint balance, uint totalRepayment, uint noOfInstallments, \r\n                                                                              uint installmentAmount, uint waitingPeriod, bool isInArrears, \r\n                                                                              uint startDate, uint endDate) {\r\n        //  insuredAmount, totalRepayment, noOfInstallments, installmentAmount, waitingPeriod, isInArrears, startDate, endDate\r\n        Policy memory policy = policies[clientAddress];\r\n        return (policy.balance, policy.totalRepayment, policy.pricingPlan.noOfPayments, retrieveInstallmentAmount(policy), policy.pricingPlan.waitingPeriodInMonths, policy.isInArrears, policy.startDate, retrievePolicyEndDate(policy));\r\n    }\r\n\r\n    function hasPolicyMatured(address clientAddress) public view returns(bool matured) {\r\n        return block.timestamp <= retrievePolicyEndDate(policies[clientAddress]);\r\n    }\r\n\r\n    function isClaimApproved(address clientAddress) public view returns(bool approved) { // this method might be useless\r\n        return policies[clientAddress].isClaimApproved;\r\n    }\r\n\r\n    function makeClaim(address clientAddress) public isPolicyActive(clientAddress) returns(bool approved) {\r\n        Policy memory policy = policies[clientAddress];\r\n        policy.bnbPriceAtClaim = priceFeed.getLatestBNBPrice();\r\n\r\n        int claimThreshold =  1 - policy.bnbPriceAtClaim /  policy.bnbPriceAtStart;\r\n        if (4 <= claimThreshold) {  // fix calculation to handle decimals\r\n            return false;\r\n        }\r\n        policy.isClaimApproved = true;\r\n        return true;\r\n    }\r\n\r\n    function withdraw(address clientAddress) public view returns(bool approved) {\r\n        // if (claimApproved || policyCancelled || reachedMaturityDate)\r\n    }\r\n\r\n    function changeAddress(address clientAddress, address newAddress) public returns(bool changed) {\r\n        Policy memory policy = policies[clientAddress]; // need to still test\r\n        delete(policies[clientAddress]);\r\n        policies[newAddress] = policy;\r\n        return true;\r\n    } \r\n\r\n    function payInstallment(address clientAddress) public isPolicyActive(clientAddress) payable returns(bool paid) {\r\n        Policy memory policy = policies[clientAddress];\r\n        policy.noOfInstallmentsPaid += 1;\r\n        policy.pendingFirstInstallment = false;\r\n        return true;\r\n    } \r\n\r\n    // assuming a maximum of 2 installments over 12 month period for now\r\n    function getNextInstallmentDetails(address clientAddress) public isPolicyActive(clientAddress) view returns(uint nextInstallmentDate) {\r\n        Policy memory policy = policies[clientAddress];\r\n        if (policy.pendingFirstInstallment) {\r\n            return block.timestamp;\r\n        } \r\n        uint remainingPayments = policy.pricingPlan.noOfPayments - policy.noOfInstallmentsPaid;\r\n        if (remainingPayments == 0) {\r\n            return 0;\r\n        }\r\n        return policy.startDate + ((policy.termInMonths / 2) * 30 days);\r\n    } \r\n\r\n    function cancelPolicy(address clientAddress) public returns(bool cancelled) {\r\n        policies[clientAddress].termInMonths = 0;\r\n        return true;\r\n    }   \r\n\r\n}",
  "sourcePath": "e:/git/BSC-Master-class-group-28-project/contracts/CryptoInsure.sol",
  "compiler": {
    "name": "solc",
    "version": "0.7.0+commit.9e61f92b.Emscripten.clang"
  },
  "schemaVersion": "3.3.4",
  "updatedAt": "2021-04-15T11:07:32.574Z",
  "devdoc": {
    "kind": "dev",
    "methods": {},
    "version": 1
  },
  "userdoc": {
    "kind": "user",
    "methods": {},
    "version": 1
  }
}