{
  "contractName": "HelloWorld",
  "abi": [
    {
      "inputs": [
        {
          "internalType": "string",
          "name": "_ownerWebsite",
          "type": "string"
        },
        {
          "internalType": "string",
          "name": "_message",
          "type": "string"
        }
      ],
      "stateMutability": "nonpayable",
      "type": "constructor"
    },
    {
      "inputs": [],
      "name": "helloFromOwner",
      "outputs": [
        {
          "internalType": "string",
          "name": "",
          "type": "string"
        }
      ],
      "stateMutability": "view",
      "type": "function",
      "constant": true
    },
    {
      "inputs": [],
      "name": "getMessage",
      "outputs": [
        {
          "internalType": "string",
          "name": "",
          "type": "string"
        }
      ],
      "stateMutability": "view",
      "type": "function",
      "constant": true
    },
    {
      "inputs": [
        {
          "internalType": "string",
          "name": "_message",
          "type": "string"
        }
      ],
      "name": "setMessage",
      "outputs": [
        {
          "internalType": "bool",
          "name": "updated",
          "type": "bool"
        }
      ],
      "stateMutability": "nonpayable",
      "type": "function"
    }
  ],
  "bytecode": "0x608060405234801561001057600080fd5b5060405161071d38038061071d8339818101604052604081101561003357600080fd5b810190808051604051939291908464010000000082111561005357600080fd5b8382019150602082018581111561006957600080fd5b825186600182028301116401000000008211171561008657600080fd5b8083526020830192505050908051906020019080838360005b838110156100ba57808201518184015260208101905061009f565b50505050905090810190601f1680156100e75780820380516001836020036101000a031916815260200191505b506040526020018051604051939291908464010000000082111561010a57600080fd5b8382019150602082018581111561012057600080fd5b825186600182028301116401000000008211171561013d57600080fd5b8083526020830192505050908051906020019080838360005b83811015610171578082015181840152602081019050610156565b50505050905090810190601f16801561019e5780820380516001836020036101000a031916815260200191505b50604052505050336000806101000a81548173ffffffffffffffffffffffffffffffffffffffff021916908373ffffffffffffffffffffffffffffffffffffffff16021790555081600190805190602001906101fb92919061021a565b50806002908051906020019061021292919061021a565b5050506102b7565b828054600181600116156101000203166002900490600052602060002090601f016020900481019282601f1061025b57805160ff1916838001178555610289565b82800160010185558215610289579182015b8281111561028857825182559160200191906001019061026d565b5b509050610296919061029a565b5090565b5b808211156102b357600081600090555060010161029b565b5090565b610457806102c66000396000f3fe608060405234801561001057600080fd5b50600436106100415760003560e01c8063368b877214610046578063783011af14610117578063ce6d41de1461019a575b600080fd5b6100ff6004803603602081101561005c57600080fd5b810190808035906020019064010000000081111561007957600080fd5b82018360208201111561008b57600080fd5b803590602001918460018302840111640100000000831117156100ad57600080fd5b91908080601f016020809104026020016040519081016040528093929190818152602001838380828437600081840152601f19601f82011690508083019250505050505050919291929050505061021d565b60405180821515815260200191505060405180910390f35b61011f61023f565b6040518080602001828103825283818151815260200191508051906020019080838360005b8381101561015f578082015181840152602081019050610144565b50505050905090810190601f16801561018c5780820380516001836020036101000a031916815260200191505b509250505060405180910390f35b6101a26102e2565b6040518080602001828103825283818151815260200191508051906020019080838360005b838110156101e25780820151818401526020810190506101c7565b50505050905090810190601f16801561020f5780820380516001836020036101000a031916815260200191505b509250505060405180910390f35b60008160029080519060200190610235929190610384565b5060019050919050565b6060600160405160200180807f48656c6c6f2066726f6d20000000000000000000000000000000000000000000815250600b01828054600181600116156101000203166002900480156102c95780601f106102a75761010080835404028352918201916102c9565b820191906000526020600020905b8154815290600101906020018083116102b5575b5050915050604051602081830303815290604052905090565b606060028054600181600116156101000203166002900480601f01602080910402602001604051908101604052809291908181526020018280546001816001161561010002031660029004801561037a5780601f1061034f5761010080835404028352916020019161037a565b820191906000526020600020905b81548152906001019060200180831161035d57829003601f168201915b5050505050905090565b828054600181600116156101000203166002900490600052602060002090601f016020900481019282601f106103c557805160ff19168380011785556103f3565b828001600101855582156103f3579182015b828111156103f25782518255916020019190600101906103d7565b5b5090506104009190610404565b5090565b5b8082111561041d576000816000905550600101610405565b509056fea26469706673582212200a89cc66db9c80409d95a047929ab997c9df22a6bf2552d780746cf7f1ce50b564736f6c63430007000033",
  "immutableReferences": {},
  "source": "// SPDX-License-Identifier: MIT\r\npragma solidity >= 0.4.0;\r\n\r\ncontract HelloWorld {\r\n\r\n    address private owner;\r\n    string private ownerWebsite;\r\n    string private message;\r\n\r\n    constructor(string memory _ownerWebsite, string memory _message) {\r\n        owner = msg.sender;\r\n        ownerWebsite = _ownerWebsite;\r\n        message = _message;\r\n    }\r\n\r\n    function helloFromOwner() public view returns (string memory) {\r\n        return string(abi.encodePacked(\"Hello from \", ownerWebsite));\r\n    }\r\n\r\n    function getMessage() public view returns (string memory) {\r\n        return message;\r\n    }\r\n\r\n    function setMessage(string memory _message) public returns (bool updated) {\r\n        message = _message;\r\n        return true;\r\n    }\r\n}",
  "sourcePath": "e:/git/BSC-Master-class-group-28-project/contracts/HelloWorld.sol",
  "compiler": {
    "name": "solc",
    "version": "0.7.0+commit.9e61f92b.Emscripten.clang"
  },
  "schemaVersion": "3.3.4",
  "updatedAt": "2021-04-09T16:23:22.062Z",
  "networkType": "ethereum",
  "devdoc": {
    "kind": "dev",
    "methods": {},
    "version": 1
  },
  "userdoc": {
    "kind": "user",
    "methods": {},
    "version": 1
  }
}