{
  "contractName": "PriceFeed",
  "abi": [
    {
      "inputs": [],
      "stateMutability": "nonpayable",
      "type": "constructor"
    },
    {
      "inputs": [],
      "name": "getLatestBNBPrice",
      "outputs": [
        {
          "internalType": "int256",
          "name": "",
          "type": "int256"
        }
      ],
      "stateMutability": "view",
      "type": "function"
    },
    {
      "inputs": [],
      "name": "getLatestETHPrice",
      "outputs": [
        {
          "internalType": "int256",
          "name": "",
          "type": "int256"
        }
      ],
      "stateMutability": "view",
      "type": "function"
    },
    {
      "inputs": [],
      "name": "getLatestXRPPrice",
      "outputs": [
        {
          "internalType": "int256",
          "name": "",
          "type": "int256"
        }
      ],
      "stateMutability": "view",
      "type": "function"
    }
  ],
  "bytecode": "0x608060405234801561001057600080fd5b50732514895c72f50d8bd4b4f9b1110f0d6bd2c975266000806101000a81548173ffffffffffffffffffffffffffffffffffffffff021916908373ffffffffffffffffffffffffffffffffffffffff16021790555073143db3ceefbdfe5631add3e50f7614b6ba708ba7600160006101000a81548173ffffffffffffffffffffffffffffffffffffffff021916908373ffffffffffffffffffffffffffffffffffffffff160217905550734046332373c24aed1dc8bad489a04e187833b28d600260006101000a81548173ffffffffffffffffffffffffffffffffffffffff021916908373ffffffffffffffffffffffffffffffffffffffff16021790555061038f8061011e6000396000f3fe608060405234801561001057600080fd5b50600436106100415760003560e01c8063504e473014610046578063777e0d8614610064578063a092255114610082575b600080fd5b61004e6100a0565b6040518082815260200191505060405180910390f35b61006c610187565b6040518082815260200191505060405180910390f35b61008a610270565b6040518082815260200191505060405180910390f35b60008060008060008060008054906101000a900473ffffffffffffffffffffffffffffffffffffffff1673ffffffffffffffffffffffffffffffffffffffff1663feaf968c6040518163ffffffff1660e01b815260040160a06040518083038186803b15801561010f57600080fd5b505afa158015610123573d6000803e3d6000fd5b505050506040513d60a081101561013957600080fd5b81019080805190602001909291908051906020019092919080519060200190929190805190602001909291908051906020019092919050505094509450945094509450839550505050505090565b600080600080600080600160009054906101000a900473ffffffffffffffffffffffffffffffffffffffff1673ffffffffffffffffffffffffffffffffffffffff1663feaf968c6040518163ffffffff1660e01b815260040160a06040518083038186803b1580156101f857600080fd5b505afa15801561020c573d6000803e3d6000fd5b505050506040513d60a081101561022257600080fd5b81019080805190602001909291908051906020019092919080519060200190929190805190602001909291908051906020019092919050505094509450945094509450839550505050505090565b600080600080600080600260009054906101000a900473ffffffffffffffffffffffffffffffffffffffff1673ffffffffffffffffffffffffffffffffffffffff1663feaf968c6040518163ffffffff1660e01b815260040160a06040518083038186803b1580156102e157600080fd5b505afa1580156102f5573d6000803e3d6000fd5b505050506040513d60a081101561030b57600080fd5b8101908080519060200190929190805190602001909291908051906020019092919080519060200190929190805190602001909291905050509450945094509450945083955050505050509056fea26469706673582212200232c6711c0cf9313f6e7c1d52a79e6e7c8d84a2b83ee565a00305fb0e21e9b864736f6c63430007000033",
  "immutableReferences": {},
  "source": "// SPDX-License-Identifier: MIT\r\npragma solidity >= 0.7.0;\r\n\r\nimport \"./AggregatorV3Interface.sol\";\r\n\r\ncontract PriceFeed {\r\n\r\n    AggregatorV3Interface internal BNBPriceFeed;\r\n    AggregatorV3Interface internal ETHPriceFeed;\r\n    AggregatorV3Interface internal XRPPriceFeed;\r\n\r\n    /**\r\n     * Network: Binance Smart Chain Testnet\r\n     */\r\n    constructor() {\r\n        // BNB/USD\r\n        BNBPriceFeed = AggregatorV3Interface(0x2514895c72f50D8bd4B4F9b1110F0D6bD2c97526);\r\n        // ETH/USD\r\n        ETHPriceFeed = AggregatorV3Interface(0x143db3CEEfbdfe5631aDD3E50f7614B6ba708BA7);\r\n        // XRP/USD\r\n        XRPPriceFeed = AggregatorV3Interface(0x4046332373C24Aed1dC8bAd489A04E187833B28d);\r\n    }\r\n\r\n    /**\r\n     * Returns the latest BNB price\r\n     */\r\n    function getLatestBNBPrice() public view returns (int) {\r\n        (\r\n            uint80 roundID,\r\n            int price,\r\n            uint startedAt,\r\n            uint timeStamp,\r\n            uint80 answeredInRound\r\n        ) = BNBPriceFeed.latestRoundData();\r\n        return price;\r\n    }\r\n\r\n    /**\r\n     * Returns the latest ETH price\r\n     */\r\n    function getLatestETHPrice() public view returns (int) {\r\n        (\r\n            uint80 roundID,\r\n            int price,\r\n            uint startedAt,\r\n            uint timeStamp,\r\n            uint80 answeredInRound\r\n        ) = ETHPriceFeed.latestRoundData();\r\n        return price;\r\n    }\r\n\r\n    /**\r\n     * Returns the latest XRP price\r\n     */\r\n    function getLatestXRPPrice() public view returns (int) {\r\n        (\r\n            uint80 roundID,\r\n            int price,\r\n            uint startedAt,\r\n            uint timeStamp,\r\n            uint80 answeredInRound\r\n        ) = XRPPriceFeed.latestRoundData();\r\n        return price;\r\n    }\r\n}",
  "sourcePath": "e:\\git\\BSC-Master-class-group-28-project\\contracts\\PriceFeed.sol",
  "compiler": {
    "name": "solc",
    "version": "0.7.0+commit.9e61f92b.Emscripten.clang"
  },
  "schemaVersion": "3.3.4",
  "updatedAt": "2021-04-15T11:07:32.586Z",
  "devdoc": {
    "kind": "dev",
    "methods": {},
    "version": 1
  },
  "userdoc": {
    "kind": "user",
    "methods": {
      "constructor": {
        "notice": "Network: Binance Smart Chain Testnet"
      },
      "getLatestBNBPrice()": {
        "notice": "Returns the latest BNB price"
      },
      "getLatestETHPrice()": {
        "notice": "Returns the latest ETH price"
      },
      "getLatestXRPPrice()": {
        "notice": "Returns the latest XRP price"
      }
    },
    "version": 1
  }
}